:0300000002089063
:0C089000787FE4F6D8FD7581570208D788
:10091C0002520000024C0000024A00000246000095
:0C092C00C193C192C11402440000C191AB
:10002600E525146003020668200B030201FE7537FE
:100036000EAD53AC52AF37120B90753702AD4DACC7
:100046004CAF37120B90902108E06440F53F30E644
:100056000D30E20575080480387508078033E4F52D
:1000660008E53F30E403750801E53F30E003750815
:1000760002E53F30E303750803E53F30E203750808
:1000860004E53F30E103750805E53F30E5037508F3
:100096000690200EE508F0300C0543082080035337
:1000A60008DF30010543084080035308BF300205CE
:1000B60043081080035308EF902100E0FF30E3056A
:1000C600430880800353087F902040E508F0EF3016
:1000D600E30E85240985230A853D0B853B0C801894
:1000E60090210CE0F50990210BE0F50A90210AE039
:1000F600F50B902109E0F50CE50AFD7C0075120070
:100106007513107B0F7A00AF09120C648E448F456D
:10011600902041EFF0E544FF3395E0A3EFF0E50CC6
:10012600FD7C007512007513107B0F7A00AF0B1261
:100136000C648E448F45902043EFF0E544FF3395E1
:10014600E0A3EFF0902083E0FF902082E0FD7C00AA
:100156007512007513047B037A00120C648E448FAB
:1001660045902045EFF0E544FF3395E0A3EFF0908E
:100176002081E0FF902080E0FD7C00751200751361
:10018600047B037A00120C648E448F45902047EF5F
:10019600F0E544FF3395E0A3EFF0902105E044013C
:1001A600F0E4F526C20B30112090210CE0902001DE
:1001B600F090210BE0902002F090210AE0902003BD
:1001C600F0902109E0902004F0902087E09020052F
:1001D600F0902086E0902006F0902085E0902007A1
:1001E600F0902084E0902008F0A3E557F0A3E554B2
:1001F600F0902103E04401F030102C902020E0F52F
:1002060024A3E0F523A3E0F53DA3E0F53B90220708
:10021600E524F0902206E523F0902205E53DF090D6
:100226002204E53BF0C21020060302046C201203F0
:100236000203E8902060E060030203E330020AF55F
:1002460052F553F54CF54D807B902062E0FE9020F0
:1002560061E07C002400F54FEC3EF54ED3E54F946B
:10026600FFE54E648094874006754E07754FFFC3C1
:10027600E54E648094785006754EF8754F00C3E4D9
:10028600954FF553E4954EF552902064E0FE90208C
:1002960063E07C002400F54FEC3EF54ED3E54F9429
:1002A600FFE54E648094874006754E07754FFFC381
:1002B600E54E648094785006754EF8754F00854E6D
:1002C6004C854F4D902066E0FE902065E07C002432
:1002D60000F54FEC3EF54ED3E54F94FFE54E6480B6
:1002E600948F4006754E0F754FFFC3E54F9401E599
:1002F6004E648094705006754EF0754F01C3E54EFE
:10030600648094805013E54E540FFEC3E4954FFF6E
:1003160074109E4410F54E8F4FAF4F902203EFF0AE
:10032600902001F0E54EFFA3EFF0902202F090201E
:1003360068E0FE902067E07C002400F54FEC3EF577
:100346004ED3E54F94FFE54E6480948F4006754E7C
:100356000F754FFFC3E54F9401E54E6480947050CE
:1003660006754EF0754F01C3E54E648094805013B8
:10037600E54E540FFEC3E4954FFF74109E4410F5EE
:100386004E8F4FAF4F902201EFF0902003F0E54ED5
:10039600FF3395E0A3EFF0902200F0902069E0F59E
:1003A60057A3E0F55420013590206DE030E012E4CB
:1003B600FF120C19AC06AD077F0D120B907F028061
:1003C600107F10120C19AC06AD077F0D120B907F33
:1003D60012120C19AC06AD077F01120B90C2060271
:1003E600046C902060E0F4707BA3E0FD9021002077
:1003F600E606E054DFF08004E04420F0ED30E5044A
:10040600C2118002D211902061E090200BF0902062
:1004160062E090200CF0902063E090200DF0902098
:1004260064E090200FF0902065E0902010F090207E
:1004360066E0902011F0902067E0902012F0902066
:1004460068E0902013F0902069E0902014F090204E
:100456006AE0902015F090206BE0902016F0C2061E
:10046600D2128002C20630016BE5562543F549E5F6
:10047600553542F548D3E54994FFE54864809487AD
:1004860040067548077549FFC3E54864809478506F
:10049600067548F8754900AD49AC487F0D120B90BA
:1004A600E5512541F549E5503540F548D3E54994F0
:1004B600FFE5486480948740067548077549FFC381
:1004C600E5486480947850067548F8754900AD494A
:1004D600AC48801C30051EC205E4FF120C19AC06A0
:1004E600AD077F0D120B907F02120C19AC06AD07FB
:1004F6007F01120B90120BBCEF60030206687511A8
:10050600007512007513377B007A00793CAF29120B
:100516000669E52954F024E0603124E0604924C0EE
:1005260070030205ED24706003020668AF3C120CEE
:10053600198E278F28E527FF3395E08F2E85282DE6
:10054600120C4020030302066880F8AD28AC27AFE2
:100556003C120B525006752DFA752EAF120C402028
:10056600030302066880F830080BAF3C120C198EA4
:10057600278F28C208D3E5289400E527648094785D
:100586004008E528152870021527E527FF8F2E85D8
:10059600282DE53C24FE601424FE601824FE601C11
:1005A6002406701E85275585285680168527508572
:1005B6002851800E85274285284380068527408559
:1005C6002841A201B35015E53C6404600FE53C6484
:1005D600066009AD28AC27AF37120B90120C4020ED
:1005E600030302066880F830080BAF3C120C198E24
:1005F600278F28C208C3E52894FFE52764809487DF
:1006060050080528E52870020527E527FF8F2E8567
:10061600282DE53C24FE601424FE601824FE601C90
:100626002406701E852755852856801685275085F1
:100636002851800E852742852843800685274085D8
:100646002841A201B35015E53C6404600FE53C6403
:10065600066009AD28AC27AF37120B90120C40206C
:0206660003FD92
:01066800226F
:100BED00E4FF120C198E558F567F02120C198E5080
:100BFD008F517F04120C198E428F437F06120C19F0
:0C0C0D008E408F4112078212002680FBEF
:1009380002180000011700011400011500C115C1BB
:010948001698
:10078200C2AFE4F53C75370DAF3C120C19120B8A5F
:100792007F01120C83753C02753701AF3C120C19B4
:1007A200120B8A7F01120C83753C0875370CAF3C23
:1007B200120C19120B8A7F01120C83753C0AE4F5A4
:1007C20037AF3C120C19120B8A7F01120C83753C55
:1007D2000C75370FAF3C120C19120B8A7F01120CE9
:1007E20083E4F527F52875370EAD28AC27AF37120D
:1007F2000B907F01120C83753702AD28AC27AF37FF
:10080200120B907F01120C83753C0E753703AF3CBF
:10081200120C198E278F28AD28AC27AF37120B90F8
:100822007F01120C83758911758DF8758BCCE4F5F7
:100832008A758C70C28DC28FD28CD28EC289D28BB5
:10084200C288D28A75CAFA75CBFF75C834F5C975E4
:100852009850C299C29875B810902101E044FEF0F8
:1008620075A89F90210374B8F090200074AAF090AC
:1008720021047442F090210D74AAF090210EE090B0
:0E088200204BF0A37470F0A37410F0C2082293
:100C4000E4FF20031DD203F536753103752C5AFEDF
:100C5000742C2EF8E662070EBE03F58F2F852C99B3
:030C6000D322C3D9
:010C6300226E
:100C8300781BA607781BE66012E418F600000078CC
:0B0C93001A06E6B4E5F6781B1680E9AF
:010C9E002233
:020C1900AD0725
:100C1B0043960874012DF582E43400F583E07F00E0
:100C2B00FE74002DF582E43400F583E02FFFE43EE3
:040C3B00FE5396F7D7
:010C3F002292
:100B5200AB0743961874002BF582E43400F583ED5D
:100B6200F0E59620E1FBE59630E1FBECFF74012B0A
:100B7200F582E43400F583EFF0E59620E1FBE5969B
:080B820030E1FB5396E7D3229A
:060B8A00AC06AD07AF3719
:100B9000E42DFD74083CFCAE05EEC454F04F9021EA
:100BA00006F0EDAE047804CEA2E713CE13D8F8FF1A
:0C0BB000AE05EEC4540F4F902107F02258
:03000B00020C9F45
:100C9F00C0E0C083C082758C70758A00902100E01F
:0A0CAF006410F0D082D083D0E03250
:03001B00020B08CD
:100B0800C0E0C0F0C083C082C0D075D000C000C0B3
:100B180001C002C003C004C005C006C007758DF837
:100B2800758BCC0514E514D3940F4003120006D03E
:100B380007D006D005D004D003D002D001D000D011
:0A0B4800D0D082D083D0F0D0E0328C
:03000300020A23CB
:0D0A2300C0E0C083C082C0D075D000C00507
:100A3000902102E0FD30E10D902105E04404F0D268
:100A400006C20FC20EED30E206902103E0F516ED6E
:100A500030E309902104E04401F0D210ED30E409C4
:100A6000902100E06401F0B20CED30E50B90210024
:100A7000E06404F0B201D205ED30E607902100E019
:100A80006408F0ED30E70B902100E06440F0B20222
:020A9000D2088A
:0B0A9200D005D0D0D082D083D0E0325D
:030013000209A639
:1009A600C0E0C083C082C0D075D000C0070519E57D
:1009B60019700205180517E517B40308D20B751749
:1009C60000751400300C1D30010DD3E519942CE58B
:1009D600189401403D802ED3E5199496E5189400AD
:1009E60040308021902100E0FF30E30ED3E51994DA
:1009F60090E5189401401BEF800FD3E5199432E57A
:100A0600189400400D902100E06480F07518007580
:0D0A16001900D007D0D0D082D083D0E032BC
:03002300020A9D31
:0B0A9D00C0E0C0D075D000C000C00752
:100AA80030983EC298AF99E53360051460138047CB
:100AB800EF64A57042F5357530028F3475330180C7
:100AC80036EF623474292535F8A60715300535E563
:100AD800307024E5347005753302801B753303804C
:100AE80016C299E5317004C203800C0536742C25B2
:070AF80036F8E6F59915310F
:090AFF00D007D000D0D0D0E032C5
:100BBC00E53314601014600814600D24037F0122C7
:100BCC00E4F533FF227F02220538E538D3940A403E
:100BDC000AD204D200E4F5337F0422E4F5337F0318
:010BEC0022E6
:04000600E4F51422E7
:100669008B0E8A0F8910EF540F14B40F0040030248
:10067900078190068975F003A4C58325F0C58373A6
:100689000206B60206C302072C02074102078102CD
:1006990006C30206B80207560206BA0206C30207D3
:1006A900030207180206EE0206D802076B800280D1
:1006B90000AB0EAA0FA910E4801DAB0EAA0FA9105A
:1006C9007402120CB9AB11AA12A9131402077EAB5A
:1006D9000EAA0FA9107404120CB9AB11AA12A9130E
:1006E900740D02077EAB0EAA0FA9107406120CB97D
:1006F900AB11AA12A9137401807BAB0EAA0FA91022
:100709007408120CB9AB11AA12A913740C8066AB48
:100719000EAA0FA910740A120CB9AB11AA12A913C7
:10072900E48052AB0EAA0FA910740C120CB9AB11CC
:10073900AA12A913740F803DAB0EAA0FA910740E4B
:10074900120CB9AB11AA12A91374038028AB0EAA13
:100759000FA9107412120CB9AB11AA12A9137401C2
:100769008013AB0EAA0FA9107410120CB9AB11AA01
:0907790012A913740D120CB9222F
:020C6400A907DE
:100C6600ED5BFE7A00E429FFEA3EFEE5125CFCE558
:0C0C7600135D4C6007C3E49FFFE49EFE8A
:010C8200224F
:1009490002270000013C0001370001390001350090
:10095900013600013000013100013400013200018B
:100969003800C103C10CC101C102C108C105C10BD5
:10097900C107C109C10DC100C104C10AC110013EAD
:1009890000C106C10FC10E01260001250101330076
:0C099900012300012400013B00013D008F
:10089C00020BEDE493A3F8E493A34003F68001F27A
:1008AC0008DFF48029E493A3F85407240CC8C3335D
:1008BC00C4540F4420C8834004F456800146F6DF2C
:1008CC00E4800B010204081020408090091CE47E97
:1008DC00019360BCA3FF543F30E509541FFEE49321
:1008EC00A360010ECF54C025E060A840B8E493A3E8
:1008FC00FAE493A3F8E493A3C8C582C8CAC583CA13
:10090C00F0A3C8C582C8CAC583CADFE9DEE780BECA
:0109A5000051
:100CB900BB010689828A83F0225002F722BBFE011A
:020CC900F32214
:00000001FF
