:0300000002089360
:0C089300787FE4F6D8FD7581570208DA82
:10091F0002520000024C0000024A00000246000092
:0C092F00C193C192C11402440000C191A8
:10002600E52514600302066B200B030201FE7537FB
:100036000EAD53AC52AF37120B93753702AD4DACC4
:100046004CAF37120B93902108E06440F53F30E641
:100056000D30E20575080480387508078033E4F52D
:1000660008E53F30E403750801E53F30E003750815
:1000760002E53F30E303750803E53F30E203750808
:1000860004E53F30E103750805E53F30E5037508F3
:100096000690200EE508F0300C0543082080035337
:1000A60008DF30010543084080035308BF300205CE
:1000B60043081080035308EF902100E0FF30E3056A
:1000C600430880800353087F902040E508F0EF3016
:1000D600E30E85240985230A853D0B853B0C801894
:1000E60090210CE0F50990210BE0F50A90210AE039
:1000F600F50B902109E0F50CE50AFD7C0075120070
:100106007513107B0F7A00AF09120C678E448F456A
:10011600902041EFF0E544FF3395E0A3EFF0E50CC6
:10012600FD7C007512007513107B0F7A00AF0B1261
:100136000C678E448F45902043EFF0E544FF3395DE
:10014600E0A3EFF0902083E0FF902082E0FD7C00AA
:100156007512007513047B037A00120C678E448FA8
:1001660045902045EFF0E544FF3395E0A3EFF0908E
:100176002081E0FF902080E0FD7C00751200751361
:10018600047B037A00120C678E448F45902047EF5C
:10019600F0E544FF3395E0A3EFF0902105E044013C
:1001A600F0E4F526C20B30112090210CE0902001DE
:1001B600F090210BE0902002F090210AE0902003BD
:1001C600F0902109E0902004F0902087E09020052F
:1001D600F0902086E0902006F0902085E0902007A1
:1001E600F0902084E0902008F0A3E557F0A3E554B2
:1001F600F0902103E04401F030102C902020E0F52F
:1002060024A3E0F523A3E0F53DA3E0F53B90220708
:10021600E524F0902206E523F0902205E53DF090D6
:100226002204E53BF0C21020060302046F201203ED
:100236000203E9902060E0600302046B30020AF5D5
:1002460052F553F54CF54D807B902062E0FE9020F0
:1002560061E07C002400F54FEC3EF54ED3E54F946B
:10026600FFE54E648094874006754E07754FFFC3C1
:10027600E54E648094785006754EF8754F00C3E4D9
:10028600954FF553E4954EF552902064E0FE90208C
:1002960063E07C002400F54FEC3EF54ED3E54F9429
:1002A600FFE54E648094874006754E07754FFFC381
:1002B600E54E648094785006754EF8754F00854E6D
:1002C6004C854F4D902066E0FE902065E07C002432
:1002D60000F54FEC3EF54ED3E54F94FFE54E6480B6
:1002E600948F4006754E0F754FFFC3E54F9401E599
:1002F6004E648094705006754EF0754F01C3E54EFE
:10030600648094805013E54E540FFEC3E4954FFF6E
:1003160074109E4410F54E8F4FAF4F902203EFF0AE
:10032600902001F0E54EFFA3EFF0902202F090201E
:1003360068E0FE902067E07C002400F54FEC3EF577
:100346004ED3E54F94FFE54E6480948F4006754E7C
:100356000F754FFFC3E54F9401E54E6480947050CE
:1003660006754EF0754F01C3E54E648094805013B8
:10037600E54E540FFEC3E4954FFF74109E4410F5EE
:100386004E8F4FAF4F902201EFF0902003F0E54ED5
:10039600FF3395E0A3EFF0902200F0902069E0F59E
:1003A60057A3E0F55430010302046B90206DE03052
:1003B600E012E4FF120C1CAC06AD077F0D120B9386
:1003C6007F0280107F10120C1CAC06AD077F0D1249
:1003D6000B937F12120C1CAC06AD077F01120B9318
:1003E60002046B902060E0F4707BA3E0FD90210096
:1003F60020E606E054DFF08004E04420F0ED30E52E
:1004060004C2118002D211902061E090200BF0907E
:100416002062E090200CF0902063E090200DF09098
:100426002064E090200FF0902065E0902010F0907E
:100436002066E0902011F0902067E0902012F09066
:100446002068E0902013F0902069E0902014F0904E
:10045600206AE0902015F090206BE0902016F0C204
:1004660006D2128004C206C21230016BE55625433D
:10047600F549E5553542F548D3E54994FFE5486425
:1004860080948740067548077549FFC3E548648030
:10049600947850067548F8754900AD49AC487F0D0B
:1004A600120B93E5512541F549E5503540F548D302
:1004B600E54994FFE54864809487400675480775CA
:1004C60049FFC3E5486480947850067548F8754935
:1004D60000AD49AC48801C30051EC205E4FF120C75
:1004E6001CAC06AD077F0D120B937F02120C1CACE1
:1004F60006AD077F01120B93120BBFEF60030206D6
:100506006B7511007512007513377B007A00793C04
:10051600AF2912066CE52954F024E0603124E0602E
:100526004924C070030205F02470600302066BAF15
:100536003C120C1C8E278F28E527FF3395E08F2E63
:1005460085282D120C4320030302066B80F8AD2884
:10055600AC27AF3C120B555006752DFA752EAF120F
:100566000C4320030302066B80F830080BAF3C12E5
:100576000C1C8E278F28C208D3E5289400E5276433
:100586008094784008E528152870021527E527FF8E
:100596008F2E85282DE53C24FE601424FE60182449
:1005A600FE601C2406701E852755852856801685F4
:1005B6002750852851800E85274285284380068549
:1005C6002740852841A201B35015E53C6404600F1D
:1005D600E53C64066009AD28AC27AF37120B9312D1
:1005E6000C4320030302066B80F830080BAF3C1265
:1005F6000C1C8E278F28C208C3E52894FFE52764C4
:1006060080948750080528E52870020527E527FF0E
:100616008F2E85282DE53C24FE601424FE601824C8
:10062600FE601C2406701E85275585285680168573
:100636002750852851800E852742852843800685C8
:100646002740852841A201B35015E53C6404600F9C
:10065600E53C64066009AD28AC27AF37120B931250
:050666000C432003FD20
:01066B00226C
:100BF000E4FF120C1C8E558F567F02120C1C8E5077
:100C00008F517F04120C1C8E428F437F06120C1CE6
:0C0C10008E408F4112078512002680FBE9
:10093B0002180000011700011400011500C115C1B8
:01094B001695
:10078500C2AFE4F53C75370DAF3C120C1C120B8D56
:100795007F01120C86753C02753701AF3C120C1CAB
:1007A500120B8D7F01120C86753C0875370CAF3C1A
:1007B500120C1C120B8D7F01120C86753C0AE4F598
:1007C50037AF3C120C1C120B8D7F01120C86753C49
:1007D5000C75370FAF3C120C1C120B8D7F01120CE0
:1007E50086E4F527F52875370EAD28AC27AF371207
:1007F5000B937F01120C86753702AD28AC27AF37F6
:10080500120B937F01120C86753C0E753703AF3CB6
:10081500120C1C8E278F28AD28AC27AF37120B93EF
:100825007F01120C86758911758DF8758BCCE4F5F1
:100835008A758C70C28DC28FD28CD28EC289D28BB2
:10084500C288D28A75CAFA75CBFF75C834F5C975E1
:100855009850C299C29875B810902101E044FEF0F5
:1008650075A89F90210374B8F090200074AAF090A9
:1008750021047442F090210D74AAF090210EE090AD
:0E088500204BF0A37470F0A37410F0C2082290
:100C4300E4FF20031DD203F536753103752C5AFEDC
:100C5300742C2EF8E662070EBE03F58F2F852C99B0
:030C6300D322C3D6
:010C6600226B
:100C8600781BA607781BE66012E418F600000078C9
:0B0C96001A06E6B4E5F6781B1680E9AC
:010CA1002230
:020C1C00AD0722
:100C1E0043960874012DF582E43400F583E07F00DD
:100C2E00FE74002DF582E43400F583E02FFFE43EE0
:040C3E00FE5396F7D4
:010C4200228F
:100B5500AB0743961874002BF582E43400F583ED5A
:100B6500F0E59620E1FBE59630E1FBECFF74012B07
:100B7500F582E43400F583EFF0E59620E1FBE59698
:080B850030E1FB5396E7D32297
:060B8D00AC06AD07AF3716
:100B9300E42DFD74083CFCAE05EEC454F04F9021E7
:100BA30006F0EDAE047804CEA2E713CE13D8F8FF17
:0C0BB300AE05EEC4540F4F902107F02255
:03000B00020CA242
:100CA200C0E0C083C082758C70758A00902100E01C
:0A0CB2006410F0D082D083D0E0324D
:03001B00020B0BCA
:100B0B00C0E0C0F0C083C082C0D075D000C000C0B0
:100B1B0001C002C003C004C005C006C007758DF834
:100B2B00758BCC0514E514D3940F4003120006D03B
:100B3B0007D006D005D004D003D002D001D000D00E
:0A0B4B00D0D082D083D0F0D0E03289
:03000300020A26C8
:0D0A2600C0E0C083C082C0D075D000C00504
:100A3300902102E0FD30E10D902105E04404F0D265
:100A430006C20FC20EED30E206902103E0F516ED6B
:100A530030E309902104E04401F0D210ED30E409C1
:100A6300902100E06401F0B20CED30E50B90210021
:100A7300E06404F0B201D205ED30E607902100E016
:100A83006408F0ED30E70B902100E06440F0B2021F
:020A9300D20887
:0B0A9500D005D0D0D082D083D0E0325A
:030013000209A936
:1009A900C0E0C083C082C0D075D000C0070519E57A
:1009B90019700205180517E517B40308D20B751746
:1009C90000751400300C1D30010DD3E519942CE588
:1009D900189401403D802ED3E5199496E5189400AA
:1009E90040308021902100E0FF30E30ED3E51994D7
:1009F90090E5189401401BEF800FD3E5199432E577
:100A0900189400400D902100E06480F0751800757D
:0D0A19001900D007D0D0D082D083D0E032B9
:03002300020AA02E
:0B0AA000C0E0C0D075D000C000C0074F
:100AAB0030983EC298AF99E53360051460138047C8
:100ABB00EF64A57042F5357530028F3475330180C4
:100ACB0036EF623474292535F8A60715300535E560
:100ADB00307024E5347005753302801B7533038049
:100AEB0016C299E5317004C203800C0536742C25AF
:070AFB0036F8E6F59915310C
:090B0200D007D000D0D0D0E032C1
:100BBF00E53314601014600814600D24037F0122C4
:100BCF00E4F533FF227F02220538E538D3940A403B
:100BDF000AD204D200E4F5337F0422E4F5337F0315
:010BEF0022E3
:04000600E4F51422E7
:10066C008B0E8A0F8910EF540F14B40F0040030245
:10067C00078490068C75F003A4C58325F0C583739D
:10068C000206B90206C602072F02074402078402BB
:10069C0006C60206BB0207590206BD0206C60207C1
:1006AC000602071B0206F10206DB02076E800280BF
:1006BC0000AB0EAA0FA910E4801DAB0EAA0FA91057
:1006CC007402120CBCAB11AA12A91314020781AB51
:1006DC000EAA0FA9107404120CBCAB11AA12A91308
:1006EC00740D020781AB0EAA0FA9107406120CBC74
:1006FC00AB11AA12A9137401807BAB0EAA0FA9101F
:10070C007408120CBCAB11AA12A913740C8066AB42
:10071C000EAA0FA910740A120CBCAB11AA12A913C1
:10072C00E48052AB0EAA0FA910740C120CBCAB11C6
:10073C00AA12A913740F803DAB0EAA0FA910740E48
:10074C00120CBCAB11AA12A91374038028AB0EAA0D
:10075C000FA9107412120CBCAB11AA12A9137401BC
:10076C008013AB0EAA0FA9107410120CBCAB11AAFB
:09077C0012A913740D120CBC2229
:020C6700A907DB
:100C6900ED5BFE7A00E429FFEA3EFEE5125CFCE555
:0C0C7900135D4C6007C3E49FFFE49EFE87
:010C8500224C
:10094C0002270000013C000137000139000135008D
:10095C000136000130000131000134000132000188
:10096C003800C103C10CC101C102C108C105C10BD2
:10097C00C107C109C10DC100C104C10AC110013EAA
:10098C0000C106C10FC10E01260001250101330073
:0C099C00012300012400013B00013D008C
:10089F00020BF0E493A3F8E493A34003F68001F274
:1008AF0008DFF48029E493A3F85407240CC8C3335A
:1008BF00C4540F4420C8834004F456800146F6DF29
:1008CF00E4800B010204081020408090091FE47E91
:1008DF00019360BCA3FF543F30E509541FFEE4931E
:1008EF00A360010ECF54C025E060A840B8E493A3E5
:1008FF00FAE493A3F8E493A3C8C582C8CAC583CA10
:10090F00F0A3C8C582C8CAC583CADFE9DEE780BEC7
:0109A800004E
:100CBC00BB010689828A83F0225002F722BBFE0117
:020CCC00F32211
:00000001FF
