:0300000002011FDB
:0C011F00787FE4F6D8FD75810A0200D359
:0300030002007583
:10007500C0E0C083C082C0D075D000C004C005C038
:010085000773
:10008600902102E030E137902105E04404F0E4FFDE
:10009600E508FDEF2DFDE433FC74602FF582E434B2
:1000A60020F583E0B50508E4B504040FBF0EE1BFF3
:0E00B6000E0A902100E0FF630780EFF00508BE
:0F00C400D007D005D004D0D0D082D083D0E03286
:03000B0002000EE2
:10000E00C0E0C083C082C0D075D000C000C006C0A2
:01001E0007DA
:10001F00758CE3758A5BE508B4A615750800902109
:10002F0000E0FF630780EFF090210374B9F08002C6
:10003F000508E50AC4F8540FC868FFE509C454F071
:10004F0048FE902106EFF0EEFFA3EFF07408250AAB
:07005F00F50AE43509F5097B
:0F006600D007D006D000D0D0D082D083D0E032E7
:1000D300E4F509F50AF508758901758CE3758A5B02
:1000E300D28CD2A975CAFA75CBFF75C834F5C9C2CB
:1000F30099C298759850D294D2AF7F01FE74002FA5
:10010300F58274203EF583EFF00FBF00010EEF641C
:0C011300204E70E990200074AAF080FEDD
:00000001FF
